{
  "_format": "hh-sol-artifact-1",
  "contractName": "Wallmart",
  "sourceName": "contracts/wallmart.sol",
  "abi": [
    {
      "inputs": [],
      "stateMutability": "nonpayable",
      "type": "constructor"
    },
    {
      "anonymous": false,
      "inputs": [
        {
          "indexed": true,
          "internalType": "address",
          "name": "account",
          "type": "address"
        },
        {
          "indexed": true,
          "internalType": "address",
          "name": "operator",
          "type": "address"
        },
        {
          "indexed": false,
          "internalType": "bool",
          "name": "approved",
          "type": "bool"
        }
      ],
      "name": "ApprovalForAll",
      "type": "event"
    },
    {
      "anonymous": false,
      "inputs": [
        {
          "indexed": true,
          "internalType": "address",
          "name": "operator",
          "type": "address"
        },
        {
          "indexed": true,
          "internalType": "address",
          "name": "from",
          "type": "address"
        },
        {
          "indexed": true,
          "internalType": "address",
          "name": "to",
          "type": "address"
        },
        {
          "indexed": false,
          "internalType": "uint256[]",
          "name": "ids",
          "type": "uint256[]"
        },
        {
          "indexed": false,
          "internalType": "uint256[]",
          "name": "values",
          "type": "uint256[]"
        }
      ],
      "name": "TransferBatch",
      "type": "event"
    },
    {
      "anonymous": false,
      "inputs": [
        {
          "indexed": true,
          "internalType": "address",
          "name": "operator",
          "type": "address"
        },
        {
          "indexed": true,
          "internalType": "address",
          "name": "from",
          "type": "address"
        },
        {
          "indexed": true,
          "internalType": "address",
          "name": "to",
          "type": "address"
        },
        {
          "indexed": false,
          "internalType": "uint256",
          "name": "id",
          "type": "uint256"
        },
        {
          "indexed": false,
          "internalType": "uint256",
          "name": "value",
          "type": "uint256"
        }
      ],
      "name": "TransferSingle",
      "type": "event"
    },
    {
      "anonymous": false,
      "inputs": [
        {
          "indexed": false,
          "internalType": "string",
          "name": "value",
          "type": "string"
        },
        {
          "indexed": true,
          "internalType": "uint256",
          "name": "id",
          "type": "uint256"
        }
      ],
      "name": "URI",
      "type": "event"
    },
    {
      "inputs": [
        {
          "internalType": "uint256",
          "name": "_tokenId",
          "type": "uint256"
        },
        {
          "internalType": "string",
          "name": "_name",
          "type": "string"
        },
        {
          "internalType": "uint256",
          "name": "_quantity",
          "type": "uint256"
        },
        {
          "internalType": "uint256",
          "name": "_productExpiryDate",
          "type": "uint256"
        },
        {
          "internalType": "uint256",
          "name": "_supplierPrice",
          "type": "uint256"
        }
      ],
      "name": "addProductBySupplier",
      "outputs": [
        {
          "internalType": "uint256",
          "name": "",
          "type": "uint256"
        }
      ],
      "stateMutability": "nonpayable",
      "type": "function"
    },
    {
      "inputs": [
        {
          "internalType": "address",
          "name": "account",
          "type": "address"
        },
        {
          "internalType": "uint256",
          "name": "id",
          "type": "uint256"
        }
      ],
      "name": "balanceOf",
      "outputs": [
        {
          "internalType": "uint256",
          "name": "",
          "type": "uint256"
        }
      ],
      "stateMutability": "view",
      "type": "function"
    },
    {
      "inputs": [
        {
          "internalType": "address[]",
          "name": "accounts",
          "type": "address[]"
        },
        {
          "internalType": "uint256[]",
          "name": "ids",
          "type": "uint256[]"
        }
      ],
      "name": "balanceOfBatch",
      "outputs": [
        {
          "internalType": "uint256[]",
          "name": "",
          "type": "uint256[]"
        }
      ],
      "stateMutability": "view",
      "type": "function"
    },
    {
      "inputs": [
        {
          "internalType": "address",
          "name": "_address",
          "type": "address"
        },
        {
          "internalType": "uint256",
          "name": "_tokenID",
          "type": "uint256"
        }
      ],
      "name": "checkBalance",
      "outputs": [
        {
          "internalType": "uint256",
          "name": "",
          "type": "uint256"
        }
      ],
      "stateMutability": "view",
      "type": "function"
    },
    {
      "inputs": [
        {
          "internalType": "uint256",
          "name": "",
          "type": "uint256"
        }
      ],
      "name": "customerRequest",
      "outputs": [
        {
          "internalType": "address",
          "name": "requestBy",
          "type": "address"
        },
        {
          "internalType": "uint256",
          "name": "tokenID",
          "type": "uint256"
        },
        {
          "internalType": "uint256",
          "name": "quantity",
          "type": "uint256"
        },
        {
          "internalType": "enum Wallmart.RequestStatus",
          "name": "status",
          "type": "uint8"
        }
      ],
      "stateMutability": "view",
      "type": "function"
    },
    {
      "inputs": [],
      "name": "fetchCustomerProducts",
      "outputs": [
        {
          "components": [
            {
              "internalType": "string",
              "name": "name",
              "type": "string"
            },
            {
              "internalType": "address payable",
              "name": "supplier",
              "type": "address"
            },
            {
              "internalType": "uint256",
              "name": "productExpiryDate",
              "type": "uint256"
            },
            {
              "internalType": "uint256",
              "name": "supplierPrice",
              "type": "uint256"
            },
            {
              "internalType": "uint256",
              "name": "quantity",
              "type": "uint256"
            },
            {
              "internalType": "uint256",
              "name": "priceForCustomer",
              "type": "uint256"
            },
            {
              "internalType": "enum Wallmart.ProductStatus",
              "name": "pStatus",
              "type": "uint8"
            }
          ],
          "internalType": "struct Wallmart.Product[]",
          "name": "",
          "type": "tuple[]"
        }
      ],
      "stateMutability": "view",
      "type": "function"
    },
    {
      "inputs": [],
      "name": "fetchWallmartProducts",
      "outputs": [
        {
          "components": [
            {
              "internalType": "string",
              "name": "name",
              "type": "string"
            },
            {
              "internalType": "address payable",
              "name": "supplier",
              "type": "address"
            },
            {
              "internalType": "uint256",
              "name": "productExpiryDate",
              "type": "uint256"
            },
            {
              "internalType": "uint256",
              "name": "supplierPrice",
              "type": "uint256"
            },
            {
              "internalType": "uint256",
              "name": "quantity",
              "type": "uint256"
            },
            {
              "internalType": "uint256",
              "name": "priceForCustomer",
              "type": "uint256"
            },
            {
              "internalType": "enum Wallmart.ProductStatus",
              "name": "pStatus",
              "type": "uint8"
            }
          ],
          "internalType": "struct Wallmart.Product[]",
          "name": "",
          "type": "tuple[]"
        }
      ],
      "stateMutability": "view",
      "type": "function"
    },
    {
      "inputs": [],
      "name": "getAllProducts",
      "outputs": [
        {
          "components": [
            {
              "internalType": "string",
              "name": "name",
              "type": "string"
            },
            {
              "internalType": "address payable",
              "name": "supplier",
              "type": "address"
            },
            {
              "internalType": "uint256",
              "name": "productExpiryDate",
              "type": "uint256"
            },
            {
              "internalType": "uint256",
              "name": "supplierPrice",
              "type": "uint256"
            },
            {
              "internalType": "uint256",
              "name": "quantity",
              "type": "uint256"
            },
            {
              "internalType": "uint256",
              "name": "priceForCustomer",
              "type": "uint256"
            },
            {
              "internalType": "enum Wallmart.ProductStatus",
              "name": "pStatus",
              "type": "uint8"
            }
          ],
          "internalType": "struct Wallmart.Product[]",
          "name": "",
          "type": "tuple[]"
        }
      ],
      "stateMutability": "view",
      "type": "function"
    },
    {
      "inputs": [
        {
          "internalType": "address",
          "name": "account",
          "type": "address"
        },
        {
          "internalType": "address",
          "name": "operator",
          "type": "address"
        }
      ],
      "name": "isApprovedForAll",
      "outputs": [
        {
          "internalType": "bool",
          "name": "",
          "type": "bool"
        }
      ],
      "stateMutability": "view",
      "type": "function"
    },
    {
      "inputs": [
        {
          "internalType": "uint256",
          "name": "",
          "type": "uint256"
        }
      ],
      "name": "pWallmart",
      "outputs": [
        {
          "internalType": "string",
          "name": "name",
          "type": "string"
        },
        {
          "internalType": "address payable",
          "name": "supplier",
          "type": "address"
        },
        {
          "internalType": "uint256",
          "name": "productExpiryDate",
          "type": "uint256"
        },
        {
          "internalType": "uint256",
          "name": "supplierPrice",
          "type": "uint256"
        },
        {
          "internalType": "uint256",
          "name": "quantity",
          "type": "uint256"
        },
        {
          "internalType": "uint256",
          "name": "priceForCustomer",
          "type": "uint256"
        },
        {
          "internalType": "enum Wallmart.ProductStatus",
          "name": "pStatus",
          "type": "uint8"
        }
      ],
      "stateMutability": "view",
      "type": "function"
    },
    {
      "inputs": [
        {
          "internalType": "uint256",
          "name": "",
          "type": "uint256"
        }
      ],
      "name": "productForSale",
      "outputs": [
        {
          "internalType": "uint256",
          "name": "",
          "type": "uint256"
        }
      ],
      "stateMutability": "view",
      "type": "function"
    },
    {
      "inputs": [
        {
          "internalType": "uint256",
          "name": "",
          "type": "uint256"
        }
      ],
      "name": "products",
      "outputs": [
        {
          "internalType": "string",
          "name": "name",
          "type": "string"
        },
        {
          "internalType": "address payable",
          "name": "supplier",
          "type": "address"
        },
        {
          "internalType": "uint256",
          "name": "productExpiryDate",
          "type": "uint256"
        },
        {
          "internalType": "uint256",
          "name": "supplierPrice",
          "type": "uint256"
        },
        {
          "internalType": "uint256",
          "name": "quantity",
          "type": "uint256"
        },
        {
          "internalType": "uint256",
          "name": "priceForCustomer",
          "type": "uint256"
        },
        {
          "internalType": "enum Wallmart.ProductStatus",
          "name": "pStatus",
          "type": "uint8"
        }
      ],
      "stateMutability": "view",
      "type": "function"
    },
    {
      "inputs": [
        {
          "internalType": "uint256",
          "name": "_customerRequestID",
          "type": "uint256"
        }
      ],
      "name": "purchaseByCustomer",
      "outputs": [],
      "stateMutability": "payable",
      "type": "function"
    },
    {
      "inputs": [
        {
          "internalType": "uint256",
          "name": "_wallmartRequestID",
          "type": "uint256"
        },
        {
          "internalType": "uint256",
          "name": "_sellingPrice",
          "type": "uint256"
        }
      ],
      "name": "purchaseByWallmart",
      "outputs": [],
      "stateMutability": "payable",
      "type": "function"
    },
    {
      "inputs": [
        {
          "internalType": "uint256",
          "name": "_tokenID",
          "type": "uint256"
        },
        {
          "internalType": "uint256",
          "name": "_quantity",
          "type": "uint256"
        }
      ],
      "name": "requestByCustomer",
      "outputs": [],
      "stateMutability": "nonpayable",
      "type": "function"
    },
    {
      "inputs": [
        {
          "internalType": "uint256",
          "name": "_tokenId",
          "type": "uint256"
        },
        {
          "internalType": "uint256",
          "name": "_quantity",
          "type": "uint256"
        }
      ],
      "name": "requestFromWallmart",
      "outputs": [],
      "stateMutability": "nonpayable",
      "type": "function"
    },
    {
      "inputs": [
        {
          "internalType": "address",
          "name": "from",
          "type": "address"
        },
        {
          "internalType": "address",
          "name": "to",
          "type": "address"
        },
        {
          "internalType": "uint256[]",
          "name": "ids",
          "type": "uint256[]"
        },
        {
          "internalType": "uint256[]",
          "name": "amounts",
          "type": "uint256[]"
        },
        {
          "internalType": "bytes",
          "name": "data",
          "type": "bytes"
        }
      ],
      "name": "safeBatchTransferFrom",
      "outputs": [],
      "stateMutability": "nonpayable",
      "type": "function"
    },
    {
      "inputs": [
        {
          "internalType": "address",
          "name": "from",
          "type": "address"
        },
        {
          "internalType": "address",
          "name": "to",
          "type": "address"
        },
        {
          "internalType": "uint256",
          "name": "id",
          "type": "uint256"
        },
        {
          "internalType": "uint256",
          "name": "amount",
          "type": "uint256"
        },
        {
          "internalType": "bytes",
          "name": "data",
          "type": "bytes"
        }
      ],
      "name": "safeTransferFrom",
      "outputs": [],
      "stateMutability": "nonpayable",
      "type": "function"
    },
    {
      "inputs": [
        {
          "internalType": "uint256",
          "name": "_wallmartRequestID",
          "type": "uint256"
        },
        {
          "internalType": "bool",
          "name": "_isApproved",
          "type": "bool"
        }
      ],
      "name": "sellerResponseToRequest",
      "outputs": [],
      "stateMutability": "payable",
      "type": "function"
    },
    {
      "inputs": [
        {
          "internalType": "address",
          "name": "operator",
          "type": "address"
        },
        {
          "internalType": "bool",
          "name": "approved",
          "type": "bool"
        }
      ],
      "name": "setApprovalForAll",
      "outputs": [],
      "stateMutability": "nonpayable",
      "type": "function"
    },
    {
      "inputs": [
        {
          "internalType": "bytes4",
          "name": "interfaceId",
          "type": "bytes4"
        }
      ],
      "name": "supportsInterface",
      "outputs": [
        {
          "internalType": "bool",
          "name": "",
          "type": "bool"
        }
      ],
      "stateMutability": "view",
      "type": "function"
    },
    {
      "inputs": [],
      "name": "supportsInterface",
      "outputs": [],
      "stateMutability": "nonpayable",
      "type": "function"
    },
    {
      "inputs": [],
      "name": "totalMintedItems",
      "outputs": [
        {
          "internalType": "uint256",
          "name": "",
          "type": "uint256"
        }
      ],
      "stateMutability": "view",
      "type": "function"
    },
    {
      "inputs": [
        {
          "internalType": "uint256",
          "name": "",
          "type": "uint256"
        }
      ],
      "name": "uri",
      "outputs": [
        {
          "internalType": "string",
          "name": "",
          "type": "string"
        }
      ],
      "stateMutability": "view",
      "type": "function"
    },
    {
      "inputs": [
        {
          "internalType": "uint256",
          "name": "",
          "type": "uint256"
        }
      ],
      "name": "wallmartRequest",
      "outputs": [
        {
          "internalType": "address",
          "name": "requestBy",
          "type": "address"
        },
        {
          "internalType": "uint256",
          "name": "tokenID",
          "type": "uint256"
        },
        {
          "internalType": "uint256",
          "name": "quantity",
          "type": "uint256"
        },
        {
          "internalType": "enum Wallmart.RequestStatus",
          "name": "status",
          "type": "uint8"
        }
      ],
      "stateMutability": "view",
      "type": "function"
    },
    {
      "inputs": [
        {
          "internalType": "uint256",
          "name": "_customerRequestID",
          "type": "uint256"
        },
        {
          "internalType": "bool",
          "name": "_isApproved",
          "type": "bool"
        }
      ],
      "name": "wallmartResponseToCustomer",
      "outputs": [],
      "stateMutability": "nonpayable",
      "type": "function"
    }
  ],
  "bytecode": "0x60806040527390f79bf6eb2c4f870365e785982e1f101e93b906600660006101000a81548173ffffffffffffffffffffffffffffffffffffffff021916908373ffffffffffffffffffffffffffffffffffffffff1602179055503480156200006657600080fd5b506040518060400160405280600881526020017f77616c6c6d617274000000000000000000000000000000000000000000000000815250620000ae81620000b560201b60201c565b506200042b565b8060029081620000c6919062000344565b5050565b600081519050919050565b7f4e487b7100000000000000000000000000000000000000000000000000000000600052604160045260246000fd5b7f4e487b7100000000000000000000000000000000000000000000000000000000600052602260045260246000fd5b600060028204905060018216806200014c57607f821691505b60208210810362000162576200016162000104565b5b50919050565b60008190508160005260206000209050919050565b60006020601f8301049050919050565b600082821b905092915050565b600060088302620001cc7fffffffffffffffffffffffffffffffffffffffffffffffffffffffffffffffff826200018d565b620001d886836200018d565b95508019841693508086168417925050509392505050565b6000819050919050565b6000819050919050565b6000620002256200021f6200021984620001f0565b620001fa565b620001f0565b9050919050565b6000819050919050565b620002418362000204565b6200025962000250826200022c565b8484546200019a565b825550505050565b600090565b6200027062000261565b6200027d81848462000236565b505050565b5b81811015620002a5576200029960008262000266565b60018101905062000283565b5050565b601f821115620002f457620002be8162000168565b620002c9846200017d565b81016020851015620002d9578190505b620002f1620002e8856200017d565b83018262000282565b50505b505050565b600082821c905092915050565b60006200031960001984600802620002f9565b1980831691505092915050565b600062000334838362000306565b9150826002028217905092915050565b6200034f82620000ca565b67ffffffffffffffff8111156200036b576200036a620000d5565b5b62000377825462000133565b62000384828285620002a9565b600060209050601f831160018114620003bc5760008415620003a7578287015190505b620003b3858262000326565b86555062000423565b601f198416620003cc8662000168565b60005b82811015620003f657848901518255600182019150602085019450602081019050620003cf565b8683101562000416578489015162000412601f89168262000306565b8355505b6001600288020188555050505b505050505050565b615c81806200043b6000396000f3fe6080604052600436106101805760003560e01c8063585582fb116100d1578063aa84e1fc1161008a578063df88bdb311610064578063df88bdb3146105af578063e985e9c5146105ef578063f242432a1461062c578063fc8e737f1461065557610180565b8063aa84e1fc14610519578063abe5e9c514610556578063d9edd6c71461059357610180565b8063585582fb1461041e5780636d92281b146104355780637217eb2e146104755780637acc0b201461049157806383bf8936146104d4578063a22cb465146104f057610180565b80632eb2c2d61161013e5780634d7b9bd5116101185780634d7b9bd5146103525780634e1273f41461038f57806350e1e0c5146103cc578063560799c7146103f557610180565b80632eb2c2d6146102d35780633339c107146102fc5780634cb8f9901461032757610180565b8062fdd58e1461018557806301ffc9a7146101c257806302840b72146101ff57806302ee3a52146102285780630e89341c146102535780631aabf0ad14610290575b600080fd5b34801561019157600080fd5b506101ac60048036038101906101a79190613fea565b610680565b6040516101b99190614039565b60405180910390f35b3480156101ce57600080fd5b506101e960048036038101906101e491906140ac565b610748565b6040516101f691906140f4565b60405180910390f35b34801561020b57600080fd5b506102266004803603810190610221919061413b565b61082a565b005b34801561023457600080fd5b5061023d6109ea565b60405161024a9190614410565b60405180910390f35b34801561025f57600080fd5b5061027a60048036038101906102759190614432565b610c6b565b60405161028791906144a9565b60405180910390f35b34801561029c57600080fd5b506102b760048036038101906102b29190614432565b610cff565b6040516102ca97969594939291906144e9565b60405180910390f35b3480156102df57600080fd5b506102fa60048036038101906102f5919061475c565b610df6565b005b34801561030857600080fd5b50610311610e97565b60405161031e9190614039565b60405180910390f35b34801561033357600080fd5b5061033c610eec565b6040516103499190614410565b60405180910390f35b34801561035e57600080fd5b5061037960048036038101906103749190613fea565b6112c9565b6040516103869190614039565b60405180910390f35b34801561039b57600080fd5b506103b660048036038101906103b191906148ee565b6112e2565b6040516103c39190614a15565b60405180910390f35b3480156103d857600080fd5b506103f360048036038101906103ee9190614a37565b6113fb565b005b34801561040157600080fd5b5061041c60048036038101906104179190614a37565b61161f565b005b34801561042a57600080fd5b506104336117aa565b005b34801561044157600080fd5b5061045c60048036038101906104579190614432565b6117ac565b60405161046c9493929190614ace565b60405180910390f35b61048f600480360381019061048a9190614432565b611809565b005b34801561049d57600080fd5b506104b860048036038101906104b39190614432565b611db1565b6040516104cb97969594939291906144e9565b60405180910390f35b6104ee60048036038101906104e99190614a37565b611ea8565b005b3480156104fc57600080fd5b5061051760048036038101906105129190614b13565b612415565b005b34801561052557600080fd5b50610540600480360381019061053b9190614432565b61242b565b60405161054d9190614039565b60405180910390f35b34801561056257600080fd5b5061057d60048036038101906105789190614bf4565b61244f565b60405161058a9190614039565b60405180910390f35b6105ad60048036038101906105a8919061413b565b612656565b005b3480156105bb57600080fd5b506105d660048036038101906105d19190614432565b612878565b6040516105e69493929190614ace565b60405180910390f35b3480156105fb57600080fd5b5061061660048036038101906106119190614c8b565b6128d5565b60405161062391906140f4565b60405180910390f35b34801561063857600080fd5b50610653600480360381019061064e9190614ccb565b612969565b005b34801561066157600080fd5b5061066a612a0a565b6040516106779190614410565b60405180910390f35b60008073ffffffffffffffffffffffffffffffffffffffff168373ffffffffffffffffffffffffffffffffffffffff16036106f0576040517f08c379a00000000000000000000000000000000000000000000000000000000081526004016106e790614dd4565b60405180910390fd5b60008083815260200190815260200160002060008473ffffffffffffffffffffffffffffffffffffffff1673ffffffffffffffffffffffffffffffffffffffff16815260200190815260200160002054905092915050565b60007fd9b67a26000000000000000000000000000000000000000000000000000000007bffffffffffffffffffffffffffffffffffffffffffffffffffffffff1916827bffffffffffffffffffffffffffffffffffffffffffffffffffffffff1916148061081357507f0e89341c000000000000000000000000000000000000000000000000000000007bffffffffffffffffffffffffffffffffffffffffffffffffffffffff1916827bffffffffffffffffffffffffffffffffffffffffffffffffffffffff1916145b80610823575061082282612e2b565b5b9050919050565b6000600860008481526020019081526020016000206040518060800160405290816000820160009054906101000a900473ffffffffffffffffffffffffffffffffffffffff1673ffffffffffffffffffffffffffffffffffffffff1673ffffffffffffffffffffffffffffffffffffffff16815260200160018201548152602001600282015481526020016003820160009054906101000a900460ff1660038111156108d9576108d8614267565b5b60038111156108eb576108ea614267565b5b815250509050816108fd576001610900565b60025b8160600190600381111561091757610916614267565b5b9081600381111561092b5761092a614267565b5b8152505081156109ce5761094b610940612e95565b826000015184612e9d565b60026008600085815260200190815260200160002060030160006101000a81548160ff0219169083600381111561098557610984614267565b5b02179055506005600a600085815260200190815260200160002060060160006101000a81548160ff021916908360068111156109c4576109c3614267565b5b02179055506109e5565b6109e46109d9612e95565b826000015184612e9d565b5b505050565b606060006109f86003613009565b905060008167ffffffffffffffff811115610a1657610a15614564565b5b604051908082528060200260200182016040528015610a4f57816020015b610a3c613e8d565b815260200190600190039081610a345790505b509050610a916040518060400160405280601081526020017f70726f64756374436f756e7447202d3e0000000000000000000000000000000081525083613017565b60008080600090505b84811015610c6057600181610aaf9190614e23565b91506000600a60008481526020019081526020016000209050806040518060e0016040529081600082018054610ae490614e86565b80601f0160208091040260200160405190810160405280929190818152602001828054610b1090614e86565b8015610b5d5780601f10610b3257610100808354040283529160200191610b5d565b820191906000526020600020905b815481529060010190602001808311610b4057829003601f168201915b505050505081526020016001820160009054906101000a900473ffffffffffffffffffffffffffffffffffffffff1673ffffffffffffffffffffffffffffffffffffffff1673ffffffffffffffffffffffffffffffffffffffff168152602001600282015481526020016003820154815260200160048201548152602001600582015481526020016006820160009054906101000a900460ff166006811115610c0957610c08614267565b5b6006811115610c1b57610c1a614267565b5b81525050858581518110610c3257610c31614eb7565b5b6020026020010181905250600184610c4a9190614e23565b9350508080610c5890614ee6565b915050610a9a565b508294505050505090565b606060028054610c7a90614e86565b80601f0160208091040260200160405190810160405280929190818152602001828054610ca690614e86565b8015610cf35780601f10610cc857610100808354040283529160200191610cf3565b820191906000526020600020905b815481529060010190602001808311610cd657829003601f168201915b50505050509050919050565b600b602052806000526040600020600091509050806000018054610d2290614e86565b80601f0160208091040260200160405190810160405280929190818152602001828054610d4e90614e86565b8015610d9b5780601f10610d7057610100808354040283529160200191610d9b565b820191906000526020600020905b815481529060010190602001808311610d7e57829003601f168201915b5050505050908060010160009054906101000a900473ffffffffffffffffffffffffffffffffffffffff16908060020154908060030154908060040154908060050154908060060160009054906101000a900460ff16905087565b610dfe612e95565b73ffffffffffffffffffffffffffffffffffffffff168573ffffffffffffffffffffffffffffffffffffffff161480610e445750610e4385610e3e612e95565b6128d5565b5b610e83576040517f08c379a0000000000000000000000000000000000000000000000000000000008152600401610e7a90614fa0565b60405180910390fd5b610e9085858585856130b3565b5050505050565b600080610ea46003613009565b9050610ee56040518060400160405280601081526020017f70726f64756374436f756e7447202d3e0000000000000000000000000000000081525082613017565b8091505090565b60606000610efa6003613009565b905060008060005b83811015611023573373ffffffffffffffffffffffffffffffffffffffff1660086000600184610f329190614e23565b815260200190815260200160002060000160009054906101000a900473ffffffffffffffffffffffffffffffffffffffff1673ffffffffffffffffffffffffffffffffffffffff1603611010576110006040518060400160405280600681526020017f776c6c6d7274000000000000000000000000000000000000000000000000000081525060086000600185610fc99190614e23565b815260200190815260200160002060000160009054906101000a900473ffffffffffffffffffffffffffffffffffffffff166133d4565b60018361100d9190614e23565b92505b808061101b90614ee6565b915050610f02565b5060008267ffffffffffffffff8111156110405761103f614564565b5b60405190808252806020026020018201604052801561107957816020015b611066613e8d565b81526020019060019003908161105e5790505b50905060005b848110156112be573373ffffffffffffffffffffffffffffffffffffffff16600860006001846110af9190614e23565b815260200190815260200160002060000160009054906101000a900473ffffffffffffffffffffffffffffffffffffffff1673ffffffffffffffffffffffffffffffffffffffff16036112ab57600060018261110b9190614e23565b90506000600a60008381526020019081526020016000209050806040518060e001604052908160008201805461114090614e86565b80601f016020809104026020016040519081016040528092919081815260200182805461116c90614e86565b80156111b95780601f1061118e576101008083540402835291602001916111b9565b820191906000526020600020905b81548152906001019060200180831161119c57829003601f168201915b505050505081526020016001820160009054906101000a900473ffffffffffffffffffffffffffffffffffffffff1673ffffffffffffffffffffffffffffffffffffffff1673ffffffffffffffffffffffffffffffffffffffff168152602001600282015481526020016003820154815260200160048201548152602001600582015481526020016006820160009054906101000a900460ff16600681111561126557611264614267565b5b600681111561127757611276614267565b5b8152505084868151811061128e5761128d614eb7565b5b60200260200101819052506001856112a69190614e23565b945050505b80806112b690614ee6565b91505061107f565b508094505050505090565b6000806112d68484610680565b90508091505092915050565b60608151835114611328576040517f08c379a000000000000000000000000000000000000000000000000000000000815260040161131f90615032565b60405180910390fd5b6000835167ffffffffffffffff81111561134557611344614564565b5b6040519080825280602002602001820160405280156113735781602001602082028036833780820191505090505b50905060005b84518110156113f0576113c085828151811061139857611397614eb7565b5b60200260200101518583815181106113b3576113b2614eb7565b5b6020026020010151610680565b8282815181106113d3576113d2614eb7565b5b602002602001018181525050806113e990614ee6565b9050611379565b508091505092915050565b611426600660009054906101000a900473ffffffffffffffffffffffffffffffffffffffff16613470565b80611453600660009054906101000a900473ffffffffffffffffffffffffffffffffffffffff1684610680565b1015611494576040517f08c379a000000000000000000000000000000000000000000000000000000000815260040161148b906150c4565b60405180910390fd5b61149e6005613509565b60006114aa6005613009565b90506114b4613ef2565b6114bc612e95565b816000019073ffffffffffffffffffffffffffffffffffffffff16908173ffffffffffffffffffffffffffffffffffffffff168152505083816020018181525050828160400181815250506000816060019060038111156115205761151f614267565b5b9081600381111561153457611533614267565b5b81525050806008600084815260200190815260200160002060008201518160000160006101000a81548173ffffffffffffffffffffffffffffffffffffffff021916908373ffffffffffffffffffffffffffffffffffffffff160217905550602082015181600101556040820151816002015560608201518160030160006101000a81548160ff021916908360038111156115d2576115d1614267565b5b02179055509050506004600a600086815260200190815260200160002060060160006101000a81548160ff0219169083600681111561161457611613614267565b5b021790555050505050565b6116296004613509565b60006116356004613009565b905061163f613ef2565b611647612e95565b816000019073ffffffffffffffffffffffffffffffffffffffff16908173ffffffffffffffffffffffffffffffffffffffff168152505083816020018181525050828160400181815250506000816060019060038111156116ab576116aa614267565b5b908160038111156116bf576116be614267565b5b815250506001600a600086815260200190815260200160002060060160006101000a81548160ff021916908360068111156116fd576116fc614267565b5b0217905550806009600084815260200190815260200160002060008201518160000160006101000a81548173ffffffffffffffffffffffffffffffffffffffff021916908373ffffffffffffffffffffffffffffffffffffffff160217905550602082015181600101556040820151816002015560608201518160030160006101000a81548160ff0219169083600381111561179c5761179b614267565b5b021790555090505050505050565b565b60086020528060005260406000206000915090508060000160009054906101000a900473ffffffffffffffffffffffffffffffffffffffff16908060010154908060020154908060030160009054906101000a900460ff16905084565b6000600860008381526020019081526020016000206040518060800160405290816000820160009054906101000a900473ffffffffffffffffffffffffffffffffffffffff1673ffffffffffffffffffffffffffffffffffffffff1673ffffffffffffffffffffffffffffffffffffffff16815260200160018201548152602001600282015481526020016003820160009054906101000a900460ff1660038111156118b8576118b7614267565b5b60038111156118ca576118c9614267565b5b815250509050600260038111156118e4576118e3614267565b5b816060015160038111156118fb576118fa614267565b5b1461193b576040517f08c379a000000000000000000000000000000000000000000000000000000000815260040161193290615130565b60405180910390fd5b3373ffffffffffffffffffffffffffffffffffffffff16816000015173ffffffffffffffffffffffffffffffffffffffff16146119ad576040517f08c379a00000000000000000000000000000000000000000000000000000000081526004016119a49061519c565b60405180910390fd5b6000600a6000836020015181526020019081526020016000206040518060e00160405290816000820180546119e190614e86565b80601f0160208091040260200160405190810160405280929190818152602001828054611a0d90614e86565b8015611a5a5780601f10611a2f57610100808354040283529160200191611a5a565b820191906000526020600020905b815481529060010190602001808311611a3d57829003601f168201915b505050505081526020016001820160009054906101000a900473ffffffffffffffffffffffffffffffffffffffff1673ffffffffffffffffffffffffffffffffffffffff1673ffffffffffffffffffffffffffffffffffffffff168152602001600282015481526020016003820154815260200160048201548152602001600582015481526020016006820160009054906101000a900460ff166006811115611b0657611b05614267565b5b6006811115611b1857611b17614267565b5b815250509050600082604001518260a00151611b3491906151bc565b9050611b766040518060400160405280600481526020017f3d3d3e2000000000000000000000000000000000000000000000000000000000815250823461351f565b803414611bb8576040517f08c379a0000000000000000000000000000000000000000000000000000000008152600401611baf9061524a565b60405180910390fd5b611c02600660009054906101000a900473ffffffffffffffffffffffffffffffffffffffff1684600001518560200151866040015160405180602001604052806000815250612969565b600660009054906101000a900473ffffffffffffffffffffffffffffffffffffffff1673ffffffffffffffffffffffffffffffffffffffff166108fc829081150290604051600060405180830381858888f19350505050158015611c6a573d6000803e3d6000fd5b50600383606001906003811115611c8457611c83614267565b5b90816003811115611c9857611c97614267565b5b815250506006600a600086815260200190815260200160002060060160006101000a81548160ff02191690836006811115611cd657611cd5614267565b5b0217905550826008600086815260200190815260200160002060008201518160000160006101000a81548173ffffffffffffffffffffffffffffffffffffffff021916908373ffffffffffffffffffffffffffffffffffffffff160217905550602082015181600101556040820151816002015560608201518160030160006101000a81548160ff02191690836003811115611d7557611d74614267565b5b0217905550905050611dab600660009054906101000a900473ffffffffffffffffffffffffffffffffffffffff16336000612e9d565b50505050565b600a602052806000526040600020600091509050806000018054611dd490614e86565b80601f0160208091040260200160405190810160405280929190818152602001828054611e0090614e86565b8015611e4d5780601f10611e2257610100808354040283529160200191611e4d565b820191906000526020600020905b815481529060010190602001808311611e3057829003601f168201915b5050505050908060010160009054906101000a900473ffffffffffffffffffffffffffffffffffffffff16908060020154908060030154908060040154908060050154908060060160009054906101000a900460ff16905087565b6000600960008481526020019081526020016000206040518060800160405290816000820160009054906101000a900473ffffffffffffffffffffffffffffffffffffffff1673ffffffffffffffffffffffffffffffffffffffff1673ffffffffffffffffffffffffffffffffffffffff16815260200160018201548152602001600282015481526020016003820160009054906101000a900460ff166003811115611f5757611f56614267565b5b6003811115611f6957611f68614267565b5b81525050905060026003811115611f8357611f82614267565b5b81606001516003811115611f9a57611f99614267565b5b14611fda576040517f08c379a0000000000000000000000000000000000000000000000000000000008152600401611fd190615130565b60405180910390fd5b3373ffffffffffffffffffffffffffffffffffffffff16816000015173ffffffffffffffffffffffffffffffffffffffff161461204c576040517f08c379a00000000000000000000000000000000000000000000000000000000081526004016120439061519c565b60405180910390fd5b6000600a6000836020015181526020019081526020016000206040518060e001604052908160008201805461208090614e86565b80601f01602080910402602001604051908101604052809291908181526020018280546120ac90614e86565b80156120f95780601f106120ce576101008083540402835291602001916120f9565b820191906000526020600020905b8154815290600101906020018083116120dc57829003601f168201915b505050505081526020016001820160009054906101000a900473ffffffffffffffffffffffffffffffffffffffff1673ffffffffffffffffffffffffffffffffffffffff1673ffffffffffffffffffffffffffffffffffffffff168152602001600282015481526020016003820154815260200160048201548152602001600582015481526020016006820160009054906101000a900460ff1660068111156121a5576121a4614267565b5b60068111156121b7576121b6614267565b5b8152505090506000826040015182606001516121d391906151bc565b905083600a600085602001518152602001908152602001600020600501819055506122336040518060400160405280600b81526020017f70726f64756374436f737400000000000000000000000000000000000000000081525082613017565b803414612275576040517f08c379a000000000000000000000000000000000000000000000000000000000815260040161226c9061524a565b60405180910390fd5b6122a1826020015184600001518560200151866040015160405180602001604052806000815250612969565b816020015173ffffffffffffffffffffffffffffffffffffffff166108fc829081150290604051600060405180830381858888f193505050501580156122eb573d6000803e3d6000fd5b5060038360600190600381111561230557612304614267565b5b9081600381111561231957612318614267565b5b81525050826009600087815260200190815260200160002060008201518160000160006101000a81548173ffffffffffffffffffffffffffffffffffffffff021916908373ffffffffffffffffffffffffffffffffffffffff160217905550602082015181600101556040820151816002015560608201518160030160006101000a81548160ff021916908360038111156123b7576123b6614267565b5b02179055509050506123cf8260200151336000612e9d565b6003600a600087815260200190815260200160002060060160006101000a81548160ff0219169083600681111561240957612408614267565b5b02179055505050505050565b612427612420612e95565b8383612e9d565b5050565b6007818154811061243b57600080fd5b906000526020600020016000915090505481565b60008086905060008103612474576124676003613509565b6124716003613009565b90505b61249661247f612e95565b8287604051806020016040528060008152506135be565b61249e613e8d565b86816000018190525084816040018181525050838160600181815250506124c3612e95565b816020019073ffffffffffffffffffffffffffffffffffffffff16908173ffffffffffffffffffffffffffffffffffffffff168152505061253d6040518060400160405280600b81526020017f70726f64756374436f73740000000000000000000000000000000000000000008152508260600151613017565b80600a600084815260200190815260200160002060008201518160000190816125669190615416565b5060208201518160010160006101000a81548173ffffffffffffffffffffffffffffffffffffffff021916908373ffffffffffffffffffffffffffffffffffffffff16021790555060408201518160020155606082015181600301556080820151816004015560a0820151816005015560c08201518160060160006101000a81548160ff0219169083600681111561260157612600614267565b5b02179055509050506000600a600084815260200190815260200160002060060160006101000a81548160ff0219169083600681111561264357612642614267565b5b0217905550819250505095945050505050565b6000600960008481526020019081526020016000206040518060800160405290816000820160009054906101000a900473ffffffffffffffffffffffffffffffffffffffff1673ffffffffffffffffffffffffffffffffffffffff1673ffffffffffffffffffffffffffffffffffffffff16815260200160018201548152602001600282015481526020016003820160009054906101000a900460ff16600381111561270557612704614267565b5b600381111561271757612716614267565b5b8152505090508161272957600161272c565b60025b8160600190600381111561274357612742614267565b5b9081600381111561275757612756614267565b5b81525050811561285c5761276f338260200151610680565b816040015111156127c357600061278a338360200151610680565b826040015161279991906154e8565b90506127c16127a6612e95565b836020015183604051806020016040528060008152506135be565b505b6127d96127ce612e95565b826000015184612e9d565b60026009600085815260200190815260200160002060030160006101000a81548160ff0219169083600381111561281357612812614267565b5b02179055506002600a600085815260200190815260200160002060060160006101000a81548160ff0219169083600681111561285257612851614267565b5b0217905550612873565b612872612867612e95565b826000015184612e9d565b5b505050565b60096020528060005260406000206000915090508060000160009054906101000a900473ffffffffffffffffffffffffffffffffffffffff16908060010154908060020154908060030160009054906101000a900460ff16905084565b6000600160008473ffffffffffffffffffffffffffffffffffffffff1673ffffffffffffffffffffffffffffffffffffffff16815260200190815260200160002060008373ffffffffffffffffffffffffffffffffffffffff1673ffffffffffffffffffffffffffffffffffffffff16815260200190815260200160002060009054906101000a900460ff16905092915050565b612971612e95565b73ffffffffffffffffffffffffffffffffffffffff168573ffffffffffffffffffffffffffffffffffffffff1614806129b757506129b6856129b1612e95565b6128d5565b5b6129f6576040517f08c379a00000000000000000000000000000000000000000000000000000000081526004016129ed90614fa0565b60405180910390fd5b612a03858585858561376e565b5050505050565b60606000612a186003613009565b905060008060005b83811015612b41573373ffffffffffffffffffffffffffffffffffffffff1660096000600184612a509190614e23565b815260200190815260200160002060000160009054906101000a900473ffffffffffffffffffffffffffffffffffffffff1673ffffffffffffffffffffffffffffffffffffffff1603612b2e57612b1e6040518060400160405280600681526020017f776c6c6d7274000000000000000000000000000000000000000000000000000081525060096000600185612ae79190614e23565b815260200190815260200160002060000160009054906101000a900473ffffffffffffffffffffffffffffffffffffffff166133d4565b600183612b2b9190614e23565b92505b8080612b3990614ee6565b915050612a20565b5060008267ffffffffffffffff811115612b5e57612b5d614564565b5b604051908082528060200260200182016040528015612b9757816020015b612b84613e8d565b815260200190600190039081612b7c5790505b50905060005b84811015612e20573373ffffffffffffffffffffffffffffffffffffffff1660096000600184612bcd9190614e23565b815260200190815260200160002060000160009054906101000a900473ffffffffffffffffffffffffffffffffffffffff1673ffffffffffffffffffffffffffffffffffffffff16148015612c5957506000612c57600660009054906101000a900473ffffffffffffffffffffffffffffffffffffffff16600184612c529190614e23565b610680565b115b15612e0d576000600182612c6d9190614e23565b90506000600a60008381526020019081526020016000209050806040518060e0016040529081600082018054612ca290614e86565b80601f0160208091040260200160405190810160405280929190818152602001828054612cce90614e86565b8015612d1b5780601f10612cf057610100808354040283529160200191612d1b565b820191906000526020600020905b815481529060010190602001808311612cfe57829003601f168201915b505050505081526020016001820160009054906101000a900473ffffffffffffffffffffffffffffffffffffffff1673ffffffffffffffffffffffffffffffffffffffff1673ffffffffffffffffffffffffffffffffffffffff168152602001600282015481526020016003820154815260200160048201548152602001600582015481526020016006820160009054906101000a900460ff166006811115612dc757612dc6614267565b5b6006811115612dd957612dd8614267565b5b81525050848681518110612df057612def614eb7565b5b6020026020010181905250600185612e089190614e23565b945050505b8080612e1890614ee6565b915050612b9d565b508094505050505090565b60007f01ffc9a7000000000000000000000000000000000000000000000000000000007bffffffffffffffffffffffffffffffffffffffffffffffffffffffff1916827bffffffffffffffffffffffffffffffffffffffffffffffffffffffff1916149050919050565b600033905090565b8173ffffffffffffffffffffffffffffffffffffffff168373ffffffffffffffffffffffffffffffffffffffff1603612f0b576040517f08c379a0000000000000000000000000000000000000000000000000000000008152600401612f029061558e565b60405180910390fd5b80600160008573ffffffffffffffffffffffffffffffffffffffff1673ffffffffffffffffffffffffffffffffffffffff16815260200190815260200160002060008473ffffffffffffffffffffffffffffffffffffffff1673ffffffffffffffffffffffffffffffffffffffff16815260200190815260200160002060006101000a81548160ff0219169083151502179055508173ffffffffffffffffffffffffffffffffffffffff168373ffffffffffffffffffffffffffffffffffffffff167f17307eab39ab6107e8899845ad3d59bd9653f200f220920489ca2b5937696c3183604051612ffc91906140f4565b60405180910390a3505050565b600081600001549050919050565b6130af828260405160240161302d9291906155ae565b6040516020818303038152906040527fb60e72cc000000000000000000000000000000000000000000000000000000007bffffffffffffffffffffffffffffffffffffffffffffffffffffffff19166020820180517bffffffffffffffffffffffffffffffffffffffffffffffffffffffff8381831617835250505050613a09565b5050565b81518351146130f7576040517f08c379a00000000000000000000000000000000000000000000000000000000081526004016130ee90615650565b60405180910390fd5b600073ffffffffffffffffffffffffffffffffffffffff168473ffffffffffffffffffffffffffffffffffffffff1603613166576040517f08c379a000000000000000000000000000000000000000000000000000000000815260040161315d906156e2565b60405180910390fd5b6000613170612e95565b9050613180818787878787613a32565b60005b84518110156133315760008582815181106131a1576131a0614eb7565b5b6020026020010151905060008583815181106131c0576131bf614eb7565b5b60200260200101519050600080600084815260200190815260200160002060008b73ffffffffffffffffffffffffffffffffffffffff1673ffffffffffffffffffffffffffffffffffffffff16815260200190815260200160002054905081811015613261576040517f08c379a000000000000000000000000000000000000000000000000000000000815260040161325890615774565b60405180910390fd5b81810360008085815260200190815260200160002060008c73ffffffffffffffffffffffffffffffffffffffff1673ffffffffffffffffffffffffffffffffffffffff168152602001908152602001600020819055508160008085815260200190815260200160002060008b73ffffffffffffffffffffffffffffffffffffffff1673ffffffffffffffffffffffffffffffffffffffff16815260200190815260200160002060008282546133169190614e23565b925050819055505050508061332a90614ee6565b9050613183565b508473ffffffffffffffffffffffffffffffffffffffff168673ffffffffffffffffffffffffffffffffffffffff168273ffffffffffffffffffffffffffffffffffffffff167f4a39dc06d4c0dbc64b70af90fd698a233a518aa5d07e595d983b8c0526c8f7fb87876040516133a8929190615794565b60405180910390a46133be818787878787613a3a565b6133cc818787878787613a42565b505050505050565b61346c82826040516024016133ea9291906157cb565b6040516020818303038152906040527f319af333000000000000000000000000000000000000000000000000000000007bffffffffffffffffffffffffffffffffffffffffffffffffffffffff19166020820180517bffffffffffffffffffffffffffffffffffffffffffffffffffffffff8381831617835250505050613a09565b5050565b6135068160405160240161348491906157fb565b6040516020818303038152906040527f2c2ecbc2000000000000000000000000000000000000000000000000000000007bffffffffffffffffffffffffffffffffffffffffffffffffffffffff19166020820180517bffffffffffffffffffffffffffffffffffffffffffffffffffffffff8381831617835250505050613a09565b50565b6001816000016000828254019250508190555050565b6135b983838360405160240161353793929190615816565b6040516020818303038152906040527fca47c4eb000000000000000000000000000000000000000000000000000000007bffffffffffffffffffffffffffffffffffffffffffffffffffffffff19166020820180517bffffffffffffffffffffffffffffffffffffffffffffffffffffffff8381831617835250505050613a09565b505050565b600073ffffffffffffffffffffffffffffffffffffffff168473ffffffffffffffffffffffffffffffffffffffff160361362d576040517f08c379a0000000000000000000000000000000000000000000000000000000008152600401613624906158c6565b60405180910390fd5b6000613637612e95565b9050600061364485613c19565b9050600061365185613c19565b905061366283600089858589613a32565b8460008088815260200190815260200160002060008973ffffffffffffffffffffffffffffffffffffffff1673ffffffffffffffffffffffffffffffffffffffff16815260200190815260200160002060008282546136c19190614e23565b925050819055508673ffffffffffffffffffffffffffffffffffffffff16600073ffffffffffffffffffffffffffffffffffffffff168473ffffffffffffffffffffffffffffffffffffffff167fc3d58168c5ae7397731d063d5bbf3d657854427343f4c083240f7aacaa2d0f62898960405161373f9291906158e6565b60405180910390a461375683600089858589613a3a565b61376583600089898989613c93565b50505050505050565b600073ffffffffffffffffffffffffffffffffffffffff168473ffffffffffffffffffffffffffffffffffffffff16036137dd576040517f08c379a00000000000000000000000000000000000000000000000000000000081526004016137d4906156e2565b60405180910390fd5b60006137e7612e95565b905060006137f485613c19565b9050600061380185613c19565b9050613811838989858589613a32565b600080600088815260200190815260200160002060008a73ffffffffffffffffffffffffffffffffffffffff1673ffffffffffffffffffffffffffffffffffffffff168152602001908152602001600020549050858110156138a8576040517f08c379a000000000000000000000000000000000000000000000000000000000815260040161389f90615774565b60405180910390fd5b85810360008089815260200190815260200160002060008b73ffffffffffffffffffffffffffffffffffffffff1673ffffffffffffffffffffffffffffffffffffffff168152602001908152602001600020819055508560008089815260200190815260200160002060008a73ffffffffffffffffffffffffffffffffffffffff1673ffffffffffffffffffffffffffffffffffffffff168152602001908152602001600020600082825461395d9190614e23565b925050819055508773ffffffffffffffffffffffffffffffffffffffff168973ffffffffffffffffffffffffffffffffffffffff168573ffffffffffffffffffffffffffffffffffffffff167fc3d58168c5ae7397731d063d5bbf3d657854427343f4c083240f7aacaa2d0f628a8a6040516139da9291906158e6565b60405180910390a46139f0848a8a86868a613a3a565b6139fe848a8a8a8a8a613c93565b505050505050505050565b60008151905060006a636f6e736f6c652e6c6f679050602083016000808483855afa5050505050565b505050505050565b505050505050565b613a618473ffffffffffffffffffffffffffffffffffffffff16613e6a565b15613c11578373ffffffffffffffffffffffffffffffffffffffff1663bc197c8187878686866040518663ffffffff1660e01b8152600401613aa7959493929190615964565b6020604051808303816000875af1925050508015613ae357506040513d601f19601f82011682018060405250810190613ae091906159e1565b60015b613b8857613aef615a1b565b806308c379a003613b4b5750613b03615a3d565b80613b0e5750613b4d565b806040517f08c379a0000000000000000000000000000000000000000000000000000000008152600401613b4291906144a9565b60405180910390fd5b505b6040517f08c379a0000000000000000000000000000000000000000000000000000000008152600401613b7f90615b3f565b60405180910390fd5b63bc197c8160e01b7bffffffffffffffffffffffffffffffffffffffffffffffffffffffff1916817bffffffffffffffffffffffffffffffffffffffffffffffffffffffff191614613c0f576040517f08c379a0000000000000000000000000000000000000000000000000000000008152600401613c0690615bd1565b60405180910390fd5b505b505050505050565b60606000600167ffffffffffffffff811115613c3857613c37614564565b5b604051908082528060200260200182016040528015613c665781602001602082028036833780820191505090505b5090508281600081518110613c7e57613c7d614eb7565b5b60200260200101818152505080915050919050565b613cb28473ffffffffffffffffffffffffffffffffffffffff16613e6a565b15613e62578373ffffffffffffffffffffffffffffffffffffffff1663f23a6e6187878686866040518663ffffffff1660e01b8152600401613cf8959493929190615bf1565b6020604051808303816000875af1925050508015613d3457506040513d601f19601f82011682018060405250810190613d3191906159e1565b60015b613dd957613d40615a1b565b806308c379a003613d9c5750613d54615a3d565b80613d5f5750613d9e565b806040517f08c379a0000000000000000000000000000000000000000000000000000000008152600401613d9391906144a9565b60405180910390fd5b505b6040517f08c379a0000000000000000000000000000000000000000000000000000000008152600401613dd090615b3f565b60405180910390fd5b63f23a6e6160e01b7bffffffffffffffffffffffffffffffffffffffffffffffffffffffff1916817bffffffffffffffffffffffffffffffffffffffffffffffffffffffff191614613e60576040517f08c379a0000000000000000000000000000000000000000000000000000000008152600401613e5790615bd1565b60405180910390fd5b505b505050505050565b6000808273ffffffffffffffffffffffffffffffffffffffff163b119050919050565b6040518060e0016040528060608152602001600073ffffffffffffffffffffffffffffffffffffffff1681526020016000815260200160008152602001600081526020016000815260200160006006811115613eec57613eeb614267565b5b81525090565b6040518060800160405280600073ffffffffffffffffffffffffffffffffffffffff168152602001600081526020016000815260200160006003811115613f3c57613f3b614267565b5b81525090565b6000604051905090565b600080fd5b600080fd5b600073ffffffffffffffffffffffffffffffffffffffff82169050919050565b6000613f8182613f56565b9050919050565b613f9181613f76565b8114613f9c57600080fd5b50565b600081359050613fae81613f88565b92915050565b6000819050919050565b613fc781613fb4565b8114613fd257600080fd5b50565b600081359050613fe481613fbe565b92915050565b6000806040838503121561400157614000613f4c565b5b600061400f85828601613f9f565b925050602061402085828601613fd5565b9150509250929050565b61403381613fb4565b82525050565b600060208201905061404e600083018461402a565b92915050565b60007fffffffff0000000000000000000000000000000000000000000000000000000082169050919050565b61408981614054565b811461409457600080fd5b50565b6000813590506140a681614080565b92915050565b6000602082840312156140c2576140c1613f4c565b5b60006140d084828501614097565b91505092915050565b60008115159050919050565b6140ee816140d9565b82525050565b600060208201905061410960008301846140e5565b92915050565b614118816140d9565b811461412357600080fd5b50565b6000813590506141358161410f565b92915050565b6000806040838503121561415257614151613f4c565b5b600061416085828601613fd5565b925050602061417185828601614126565b9150509250929050565b600081519050919050565b600082825260208201905092915050565b6000819050602082019050919050565b600081519050919050565b600082825260208201905092915050565b60005b838110156141e15780820151818401526020810190506141c6565b60008484015250505050565b6000601f19601f8301169050919050565b6000614209826141a7565b61421381856141b2565b93506142238185602086016141c3565b61422c816141ed565b840191505092915050565b600061424282613f56565b9050919050565b61425281614237565b82525050565b61426181613fb4565b82525050565b7f4e487b7100000000000000000000000000000000000000000000000000000000600052602160045260246000fd5b600781106142a7576142a6614267565b5b50565b60008190506142b882614296565b919050565b60006142c8826142aa565b9050919050565b6142d8816142bd565b82525050565b600060e08301600083015184820360008601526142fb82826141fe565b91505060208301516143106020860182614249565b5060408301516143236040860182614258565b5060608301516143366060860182614258565b5060808301516143496080860182614258565b5060a083015161435c60a0860182614258565b5060c083015161436f60c08601826142cf565b508091505092915050565b600061438683836142de565b905092915050565b6000602082019050919050565b60006143a68261417b565b6143b08185614186565b9350836020820285016143c285614197565b8060005b858110156143fe57848403895281516143df858261437a565b94506143ea8361438e565b925060208a019950506001810190506143c6565b50829750879550505050505092915050565b6000602082019050818103600083015261442a818461439b565b905092915050565b60006020828403121561444857614447613f4c565b5b600061445684828501613fd5565b91505092915050565b600082825260208201905092915050565b600061447b826141a7565b614485818561445f565b93506144958185602086016141c3565b61449e816141ed565b840191505092915050565b600060208201905081810360008301526144c38184614470565b905092915050565b6144d481614237565b82525050565b6144e3816142bd565b82525050565b600060e0820190508181036000830152614503818a614470565b905061451260208301896144cb565b61451f604083018861402a565b61452c606083018761402a565b614539608083018661402a565b61454660a083018561402a565b61455360c08301846144da565b98975050505050505050565b600080fd5b7f4e487b7100000000000000000000000000000000000000000000000000000000600052604160045260246000fd5b61459c826141ed565b810181811067ffffffffffffffff821117156145bb576145ba614564565b5b80604052505050565b60006145ce613f42565b90506145da8282614593565b919050565b600067ffffffffffffffff8211156145fa576145f9614564565b5b602082029050602081019050919050565b600080fd5b600061462361461e846145df565b6145c4565b905080838252602082019050602084028301858111156146465761464561460b565b5b835b8181101561466f578061465b8882613fd5565b845260208401935050602081019050614648565b5050509392505050565b600082601f83011261468e5761468d61455f565b5b813561469e848260208601614610565b91505092915050565b600080fd5b600067ffffffffffffffff8211156146c7576146c6614564565b5b6146d0826141ed565b9050602081019050919050565b82818337600083830152505050565b60006146ff6146fa846146ac565b6145c4565b90508281526020810184848401111561471b5761471a6146a7565b5b6147268482856146dd565b509392505050565b600082601f8301126147435761474261455f565b5b81356147538482602086016146ec565b91505092915050565b600080600080600060a0868803121561477857614777613f4c565b5b600061478688828901613f9f565b955050602061479788828901613f9f565b945050604086013567ffffffffffffffff8111156147b8576147b7613f51565b5b6147c488828901614679565b935050606086013567ffffffffffffffff8111156147e5576147e4613f51565b5b6147f188828901614679565b925050608086013567ffffffffffffffff81111561481257614811613f51565b5b61481e8882890161472e565b9150509295509295909350565b600067ffffffffffffffff82111561484657614845614564565b5b602082029050602081019050919050565b600061486a6148658461482b565b6145c4565b9050808382526020820190506020840283018581111561488d5761488c61460b565b5b835b818110156148b657806148a28882613f9f565b84526020840193505060208101905061488f565b5050509392505050565b600082601f8301126148d5576148d461455f565b5b81356148e5848260208601614857565b91505092915050565b6000806040838503121561490557614904613f4c565b5b600083013567ffffffffffffffff81111561492357614922613f51565b5b61492f858286016148c0565b925050602083013567ffffffffffffffff8111156149505761494f613f51565b5b61495c85828601614679565b9150509250929050565b600081519050919050565b600082825260208201905092915050565b6000819050602082019050919050565b600061499e8383614258565b60208301905092915050565b6000602082019050919050565b60006149c282614966565b6149cc8185614971565b93506149d783614982565b8060005b83811015614a085781516149ef8882614992565b97506149fa836149aa565b9250506001810190506149db565b5085935050505092915050565b60006020820190508181036000830152614a2f81846149b7565b905092915050565b60008060408385031215614a4e57614a4d613f4c565b5b6000614a5c85828601613fd5565b9250506020614a6d85828601613fd5565b9150509250929050565b614a8081613f76565b82525050565b60048110614a9757614a96614267565b5b50565b6000819050614aa882614a86565b919050565b6000614ab882614a9a565b9050919050565b614ac881614aad565b82525050565b6000608082019050614ae36000830187614a77565b614af0602083018661402a565b614afd604083018561402a565b614b0a6060830184614abf565b95945050505050565b60008060408385031215614b2a57614b29613f4c565b5b6000614b3885828601613f9f565b9250506020614b4985828601614126565b9150509250929050565b600067ffffffffffffffff821115614b6e57614b6d614564565b5b614b77826141ed565b9050602081019050919050565b6000614b97614b9284614b53565b6145c4565b905082815260208101848484011115614bb357614bb26146a7565b5b614bbe8482856146dd565b509392505050565b600082601f830112614bdb57614bda61455f565b5b8135614beb848260208601614b84565b91505092915050565b600080600080600060a08688031215614c1057614c0f613f4c565b5b6000614c1e88828901613fd5565b955050602086013567ffffffffffffffff811115614c3f57614c3e613f51565b5b614c4b88828901614bc6565b9450506040614c5c88828901613fd5565b9350506060614c6d88828901613fd5565b9250506080614c7e88828901613fd5565b9150509295509295909350565b60008060408385031215614ca257614ca1613f4c565b5b6000614cb085828601613f9f565b9250506020614cc185828601613f9f565b9150509250929050565b600080600080600060a08688031215614ce757614ce6613f4c565b5b6000614cf588828901613f9f565b9550506020614d0688828901613f9f565b9450506040614d1788828901613fd5565b9350506060614d2888828901613fd5565b925050608086013567ffffffffffffffff811115614d4957614d48613f51565b5b614d558882890161472e565b9150509295509295909350565b7f455243313135353a2061646472657373207a65726f206973206e6f742061207660008201527f616c6964206f776e657200000000000000000000000000000000000000000000602082015250565b6000614dbe602a8361445f565b9150614dc982614d62565b604082019050919050565b60006020820190508181036000830152614ded81614db1565b9050919050565b7f4e487b7100000000000000000000000000000000000000000000000000000000600052601160045260246000fd5b6000614e2e82613fb4565b9150614e3983613fb4565b9250828201905080821115614e5157614e50614df4565b5b92915050565b7f4e487b7100000000000000000000000000000000000000000000000000000000600052602260045260246000fd5b60006002820490506001821680614e9e57607f821691505b602082108103614eb157614eb0614e57565b5b50919050565b7f4e487b7100000000000000000000000000000000000000000000000000000000600052603260045260246000fd5b6000614ef182613fb4565b91507fffffffffffffffffffffffffffffffffffffffffffffffffffffffffffffffff8203614f2357614f22614df4565b5b600182019050919050565b7f455243313135353a2063616c6c6572206973206e6f7420746f6b656e206f776e60008201527f6572206f7220617070726f766564000000000000000000000000000000000000602082015250565b6000614f8a602e8361445f565b9150614f9582614f2e565b604082019050919050565b60006020820190508181036000830152614fb981614f7d565b9050919050565b7f455243313135353a206163636f756e747320616e6420696473206c656e67746860008201527f206d69736d617463680000000000000000000000000000000000000000000000602082015250565b600061501c60298361445f565b915061502782614fc0565b604082019050919050565b6000602082019050818103600083015261504b8161500f565b9050919050565b7f57616c6c6d61727420646f6573206e6f7420686176652074686973206d75636860008201527f207175616e746974790000000000000000000000000000000000000000000000602082015250565b60006150ae60298361445f565b91506150b982615052565b604082019050919050565b600060208201905081810360008301526150dd816150a1565b9050919050565b7f5265717565737420737461747573206973206e6f7420415050524f5645440000600082015250565b600061511a601e8361445f565b9150615125826150e4565b602082019050919050565b600060208201905081810360008301526151498161510d565b9050919050565b7f556e617574686f72697365640000000000000000000000000000000000000000600082015250565b6000615186600c8361445f565b915061519182615150565b602082019050919050565b600060208201905081810360008301526151b581615179565b9050919050565b60006151c782613fb4565b91506151d283613fb4565b92508282026151e081613fb4565b915082820484148315176151f7576151f6614df4565b5b5092915050565b7f506c656173652073656e642065786163742070726f6475637420707269636500600082015250565b6000615234601f8361445f565b915061523f826151fe565b602082019050919050565b6000602082019050818103600083015261526381615227565b9050919050565b60008190508160005260206000209050919050565b60006020601f8301049050919050565b600082821b905092915050565b6000600883026152cc7fffffffffffffffffffffffffffffffffffffffffffffffffffffffffffffffff8261528f565b6152d6868361528f565b95508019841693508086168417925050509392505050565b6000819050919050565b600061531361530e61530984613fb4565b6152ee565b613fb4565b9050919050565b6000819050919050565b61532d836152f8565b6153416153398261531a565b84845461529c565b825550505050565b600090565b615356615349565b615361818484615324565b505050565b5b818110156153855761537a60008261534e565b600181019050615367565b5050565b601f8211156153ca5761539b8161526a565b6153a48461527f565b810160208510156153b3578190505b6153c76153bf8561527f565b830182615366565b50505b505050565b600082821c905092915050565b60006153ed600019846008026153cf565b1980831691505092915050565b600061540683836153dc565b9150826002028217905092915050565b61541f826141a7565b67ffffffffffffffff81111561543857615437614564565b5b6154428254614e86565b61544d828285615389565b600060209050601f831160018114615480576000841561546e578287015190505b61547885826153fa565b8655506154e0565b601f19841661548e8661526a565b60005b828110156154b657848901518255600182019150602085019450602081019050615491565b868310156154d357848901516154cf601f8916826153dc565b8355505b6001600288020188555050505b505050505050565b60006154f382613fb4565b91506154fe83613fb4565b925082820390508181111561551657615515614df4565b5b92915050565b7f455243313135353a2073657474696e6720617070726f76616c2073746174757360008201527f20666f722073656c660000000000000000000000000000000000000000000000602082015250565b600061557860298361445f565b91506155838261551c565b604082019050919050565b600060208201905081810360008301526155a78161556b565b9050919050565b600060408201905081810360008301526155c88185614470565b90506155d7602083018461402a565b9392505050565b7f455243313135353a2069647320616e6420616d6f756e7473206c656e6774682060008201527f6d69736d61746368000000000000000000000000000000000000000000000000602082015250565b600061563a60288361445f565b9150615645826155de565b604082019050919050565b600060208201905081810360008301526156698161562d565b9050919050565b7f455243313135353a207472616e7366657220746f20746865207a65726f20616460008201527f6472657373000000000000000000000000000000000000000000000000000000602082015250565b60006156cc60258361445f565b91506156d782615670565b604082019050919050565b600060208201905081810360008301526156fb816156bf565b9050919050565b7f455243313135353a20696e73756666696369656e742062616c616e636520666f60008201527f72207472616e7366657200000000000000000000000000000000000000000000602082015250565b600061575e602a8361445f565b915061576982615702565b604082019050919050565b6000602082019050818103600083015261578d81615751565b9050919050565b600060408201905081810360008301526157ae81856149b7565b905081810360208301526157c281846149b7565b90509392505050565b600060408201905081810360008301526157e58185614470565b90506157f46020830184614a77565b9392505050565b60006020820190506158106000830184614a77565b92915050565b600060608201905081810360008301526158308186614470565b905061583f602083018561402a565b61584c604083018461402a565b949350505050565b7f455243313135353a206d696e7420746f20746865207a65726f2061646472657360008201527f7300000000000000000000000000000000000000000000000000000000000000602082015250565b60006158b060218361445f565b91506158bb82615854565b604082019050919050565b600060208201905081810360008301526158df816158a3565b9050919050565b60006040820190506158fb600083018561402a565b615908602083018461402a565b9392505050565b600081519050919050565b600082825260208201905092915050565b60006159368261590f565b615940818561591a565b93506159508185602086016141c3565b615959816141ed565b840191505092915050565b600060a0820190506159796000830188614a77565b6159866020830187614a77565b818103604083015261599881866149b7565b905081810360608301526159ac81856149b7565b905081810360808301526159c0818461592b565b90509695505050505050565b6000815190506159db81614080565b92915050565b6000602082840312156159f7576159f6613f4c565b5b6000615a05848285016159cc565b91505092915050565b60008160e01c9050919050565b600060033d1115615a3a5760046000803e615a37600051615a0e565b90505b90565b600060443d10615aca57615a4f613f42565b60043d036004823e80513d602482011167ffffffffffffffff82111715615a77575050615aca565b808201805167ffffffffffffffff811115615a955750505050615aca565b80602083010160043d038501811115615ab2575050505050615aca565b615ac182602001850186614593565b82955050505050505b90565b7f455243313135353a207472616e7366657220746f206e6f6e2d4552433131353560008201527f526563656976657220696d706c656d656e746572000000000000000000000000602082015250565b6000615b2960348361445f565b9150615b3482615acd565b604082019050919050565b60006020820190508181036000830152615b5881615b1c565b9050919050565b7f455243313135353a204552433131353552656365697665722072656a6563746560008201527f6420746f6b656e73000000000000000000000000000000000000000000000000602082015250565b6000615bbb60288361445f565b9150615bc682615b5f565b604082019050919050565b60006020820190508181036000830152615bea81615bae565b9050919050565b600060a082019050615c066000830188614a77565b615c136020830187614a77565b615c20604083018661402a565b615c2d606083018561402a565b8181036080830152615c3f818461592b565b9050969550505050505056fea264697066735822122085ef04b6544ddcd37aec565a5c024e755feed1e1b7634f779f88ced368952eda64736f6c63430008110033",
  "linkReferences": {},
  "deployedLinkReferences": {}
}